:02000004C0D06A
:10000000B0B58CB062B601F089FB234C2120C10051
:10001000204604F051FC6D46284604F089FCA88572
:1000200080B205281ED0002826D16D46284602F051
:1000300093FC0A9001F084FC002003F051FB0120A6
:1000400003F04EFB01F054FB01F0C0FA02F078FC23
:10005000A84202D10A9802F07FFC6846808D0028F1
:10006000D4D017E06846002181850A9802F074FC1C
:100070000A9802F071FCC9E76846002484850A9852
:1000800002F06AFC0A9802F067FC01F001FB2046CE
:100090000CB0B0BD01F047FBD8060020F0B59BB016
:1000A0001446142A1BD303460AAE04203070701C79
:1000B00001914022194604F004FC02AF2025384685
:1000C000294604F0F9FB412130463A462B4600F020
:1000D00045FA0C3714220198394604F0F2FB132C30
:1000E00001D8002000E001201BB0F0BDF0B585B0C4
:1000F0000446581E092801D900201AE01746002599
:1001000001260396019504910294204629461C4637
:1001100002F092F923467851A642039800D2019842
:100120002D1D04998D4204D8741C9E422646029CC3
:10013000EBD305B0F0BD0000F0B589B00792089090
:100140000291481E0390092862D81E4600233348B6
:100150007844019019461A4600960591079885182B
:100160001746B41A06939E000898835901200490FC
:10017000C007834328462146019A01F067FF2846BD
:1001800004F0F0FB00283CD0A0423AD2089989192B
:100190003A46C2190868002801D4009E13E0079867
:1001A0008518009E1746B41A1D4A7A4428462146EF
:1001B00001F04CFF284604F0D5FB002824D0A042D3
:1001C00022D23A46C21903980699884212D007985B
:1001D00085181746B41A134A7A442846214601F076
:1001E00035FF284604F0BEFB00280DD0A0420BD2FC
:1001F0003A46C2190599491C8BB202988342ACD386
:1002000008E00798009901E00798314604F054FB94
:1002100000200490049809B0F0BDC046355300009A
:10022000F8470000CC4700000246836859180020B8
:10023000994204D35368994201D8916001207047D4
:1002400010B544688368E11A1A461532A24206D8EE
:100250001524E443A34202D8152900D3826014294F
:1002600001D8002010BD012010BD10B54268836880
:100270009A420AD00468E45C0C708168491C06D27A
:100280004468A14203D8816001E000200870D01AC0
:10029000411E884110BD70B50D4604464068A168F6
:1002A000461A032E05D92068002A05D002F0E8F886
:1002B00004E0002028600CE002F0BEF82860A0688E
:1002C0000421C943884204D8001D6168884200D8CF
:1002D000A060032E01D8002070BD012070BD70B554
:1002E0000D4604464068A168461A072E05D92068C5
:1002F000002A06D002F0D0F805E0002028606860EF
:100300000CE002F0A5F803C5A0680821C9438842A3
:1003100004D808306168884200D8A060072E01D850
:10032000002070BD012070BDB0B515460A460446D8
:1003300000686168A368C018C91A2B46FFF7D6FE8B
:10034000002807D0A900A268511803D26268914220
:1003500000D8A160B0BDB0B51446436882689D1A4C
:10036000A54206D800688218084611462A4604F0BD
:10037000ACFAA54201D90020B0BD0120B0BDB0B596
:100380001546044642688068121AAA4201D9002024
:10039000B0BD23681B180846194604F096FAA268F7
:1003A00051190120914203D36268914200D8A160A3
:1003B000B0BDF0B597B01F4615460E4602900FA887
:1003C000202104F079FA03AC204604F0B1FAA085AC
:1003D00084B2002C29D103A802F0BEFA0D90009639
:1003E00021240FAE204629463A46334602F024FA2D
:1003F000202220463146029B00F0AAF8002812D1A4
:1004000002F09EFA03A9884202D10D9802F0A4FAE4
:100410000FA8202104F064FA03A8808D002802D1DF
:10042000002017B0F0BD01F07EF903A800218185FE
:100430000D9802F091FA204601F075F9B0B5144616
:100440000D4602462120012300F07CF8002807D148
:10045000093540222046294604F037FA0020B0BD75
:1004600001F061F9F0B5A5B019AD2821284604F0D6
:1004700023FA11AE20243046214604F01DFAC32091
:1004800080002A4F3B5CB92080003A18284631464C
:10049000FFF78FFF05AD284604F04AFAA88585B21C
:1004A000002D3AD105A802F057FA0F904820249069
:1004B00023A8039024A80290292000013818019055
:1004C0000094272000013B1819A81949032200F0C5
:1004D00033F800281FD1249C239D02F031FA05A98E
:1004E000884202D10F9802F037FA19A8282104F0A7
:1004F000F7F905A8808D00280DD10020002C07D425
:1005000001210D400B497D545B21C9007C5400E062
:10051000C04325B0F0BD01F006F905A80021818592
:100520000F9802F019FA284601F0FDF8C8030020E0
:1005300001060000D902000003B401481DE00000DC
:100540001500000003B4014817E000001B00000084
:1005500003B4014811E000001C00000003B401488E
:100560000BE000003300000003B4014805E0000088
:100570005800000003B40248FFE7024908470000A2
:100580007100000001001200F0B585B00D46044670
:100590004068FF263746F63739460931884201D987
:1005A000F926D8E020462946FFF75FFE002800D153
:1005B000D1E0287802281EDD0C2821D00B2800D19C
:1005C0009AE0032800D0C6E06068411E6960A06818
:1005D00022681018A8602046FFF726FEFD26002896
:1005E00000D1B8E02878032800D098E06868202877
:1005F00000D194E0AFE001287ED0022800D0AAE02C
:100600002946483100222046FFF769FEFD210028D7
:1006100000D18BE004912946503100222046FFF79B
:100620005EFE002800D183E0294658310022204692
:10063000FFF755FE00287BD0A06821680818E86302
:100640002046FFF7FDFD002872D0294640310022E8
:10065000204603910292FFF71EFE002868D06168D1
:10066000A368CA1A03980068904261D10193009070
:10067000E86B0390474B7B440299585C039A525CA9
:1006800082425BD1491C1529F7D101222A760099B3
:10069000002956D02068019BC35C172B51D89A4083
:1006A0003B4802424DD02946193120460391FFF7BD
:1006B000DCFD00284FD0A06821680818E8612046BA
:1006C000FFF7BEFD002833D0294620310022204606
:1006D000FFF705FE00282BD00398007817283DD09F
:1006E0000D281CD12835002220462946FFF7F7FDAA
:1006F0000028049E13D12EE06068411EE960A068C6
:100700002268101828612046FFF78EFD002821D0AE
:10071000EA682869002303F06FF800280AD06068AF
:10072000A168814208D00620C64314E00E4612E0BC
:10073000049E10E0FA260EE001260CE00020287648
:1007400000992068019A8018A8632046FFF76CFD85
:100750000028E4D1FB2670B205B0F0BD2946303147
:1007600000222046FFF797FD296B002803D1B942EC
:1007700001D3FC26EFE7A0682268101868632046C2
:10078000FFF752FD0028E5D02A6B686BC2E7C04630
:10079000082080003043000010B584B00178E029C3
:1007A00013D10022039202920192417804290FDCB6
:1007B00003291CD0042936D18178002946D1C0787C
:1007C000002843D100F06CFB43E0372040023EE0BC
:1007D000052915D0062926D18178002926D003299C
:1007E00034D8C37880241C43802C23D02EE0817819
:1007F00000292BD1C078002828D100F0B3FB28E0D5
:100800008178012922D8C378002B1FD18368002B5F
:1008100021D00193039200790290481E814101A8E2
:1008200000F052FB15E06D20000210E0C378802B31
:100830000CD180238468002C0DD0019403920079A0
:100840000290DA0901A801F08BFE02E0034800F0F3
:10085000B7FE04B010BD0148401CF8E7866A0000EE
:1008600080B5024801680120884780BD68030020E8
:1008700080B5024801680020884780BD68030020D9
:1008800070B586B017204001254C205C21780143CB
:1008900003D00020207023483BE0234D3C2628460F
:1008A000314604F009F8C3208000215CB9208000A3
:1008B00020182A463346FFF73FFC002826D01C4864
:1008C0002B2103F0F9FF01AD14262846314603F031
:1008D000F3FF0834204629463246FFF7DFFB0028A5
:1008E00016D001A8009012482B21144A7A441423F0
:1008F00001F0ACFB10481249794401601149794478
:1009000000242046224603F019F905E0074800E0DC
:10091000084800F055FE0446204606B070BDC046AB
:10092000C803002007B000000002002001B0000052
:100930003C02002002B00000680300206F4100006C
:10094000B53B0000B6420000F0B5FFB0FFB0E1B02B
:1009500017204001DE4E305C012821D1307801287B
:100960001ED1DD480024DD49E84A7A440A6004606B
:1009700044608460047321210901755CE449794471
:10098000012D14DD022D03D00B2D1AD00C2D13D107
:100990004520C000305C002811D0E049794410E0C7
:1009A00000203070CB4800F00BFE044607E1002D1C
:1009B00000D1C8E0012D04D0D649794401E0D649E0
:1009C0007944C5480D2203F0D4FF0D2D00D9F6E07F
:1009D00001221046A840C54908421DD1C449084219
:1009E00040D1C449084200D1E9E01402BC4D284678
:1009F000214603F061FF8520800033584320C0006A
:100A000030580090C64A7A442846214601F01EFB21
:100A1000C44979440024CEE01502B148294603F0C8
:100A20004BFFFF2034464600D7AF3846314603F02F
:100A300043FF8720800022581120400120580024C5
:100A4000029603940097234602F0EDFE00972B4692
:100A5000FE33B94A7A44A248294601F0F7FAB74969
:100A60007944A8E00692A4481E25294603F024FFF5
:100A70003446CFAE3046294603F01EFF4D20C1005C
:100A80006058611849689D4A0024234603F0F0FD30
:100A9000042700978A05800A82188B0A3046294667
:100AA00000F0B2F9002800D110E10597CFA800901E
:100AB0009148A34A7A441E210B4601F0C7FA45200B
:100AC000C000834E355C8E482B2103F0F5FE002DCF
:100AD0007AD08B2080003058009089482B21994A89
:100AE0007A44152301F0B2FA7F481E25294603F007
:100AF000E3FE3746C7AE3046294603F0DDFE23202D
:100B000000013A5838184368059800903046294645
:100B100000F07AF9002800D1D8E0C7A80090724808
:100B2000894A7A441E210B4601F090FA7548385CD8
:100B3000172800D182E00D2800D1A5E003283ED17E
:100B40008249794477E0784979441CC91CC0097806
:100B5000017001200402624D2846214603F0ACFEDC
:100B600085208700F3594320C000305800906F4A19
:100B70007A442846214601F069FA634D6D443446B3
:100B80001E262846314603F097FEE25900242846E7
:100B90003146234600F0ECF8002800D196E05A4890
:100BA000684400905048624A7A441E210B4601F086
:100BB0004DFA604979442046224602F0BFFF2046A4
:100BC0007FB07FB061B0F0BD9320800030580090BE
:100BD0004B482B21624A7A44152301F037FA0698D4
:100BE00005023F48294603F067FE252000013358DF
:100BF000180A14D007A8FF2103F05EFE4920C000A8
:100C000030580021425C07AB5A54491CFF29F9D1E6
:100C100007A800903248534A7A44FF2306E049204F
:100C2000C000305800902E484F4A7A44294601F0BF
:100C30000DFA4E49794400200246BEE706980502A7
:100C40002748294603F038FEFF20460007AF384604
:100C5000314603F031FE092080011D490A589120D8
:100C600080000858029603940097234602F0DBFDAB
:100C700000972B46FE33384A7A441948294601F03A
:100C8000E5F93649794496E706980502144829465D
:100C900003F012FE87AE3046294603F00DFE4720D2
:100CA000C0003A58381843683046294600F060F8CA
:100CB00000280BD087A800900948254A7A44294685
:100CC0002B4601F0C3F923497944B4E705486AE6A5
:100CD000C803002007B000006C0300206803002058
:100CE0006802002003B000009C03002002080000FE
:100CF00004100000082000007C03002010270000E2
:100D00003C020020290200005C0500005F3B00005F
:100D10004240000025400000164000003140000025
:100D2000574000002243000004420000ED3E000056
:100D3000FE3E0000644100005F40000018420000D9
:100D4000FC3F00007D3F0000963F00004E41000048
:100D5000F73D00000C4000003B3E00002C4000002E
:100D6000873E0000453E0000333E0000C4400000C6
:100D7000F0B585B000292AD01F4613460546481E07
:100D8000009000240294019518460A3838460299CA
:100D900088411ED30A250026184639462A46039361
:100DA000334603F045FC04900F462A46019D334626
:100DB00003F05EFC0399081A30210143E0B2295484
:100DC000641CE0B200998142049BDDD819E0002642
:100DD00017E0E0B230332B54291800224A70012664
:100DE00000280ED0297829542B70401E022808D3E1
:100DF00001216A5C2B5C6B542A54491C401E8142C1
:100E0000F7D3304605B0F0BDF0B589B01E461746A1
:100E10000291019003AC15252046294603F04CFDB4
:100E2000204629463A463346FFF7A2FF002600280F
:100E300032D00E9F03A803F095FDB84213D939189C
:100E4000491C029A914227D2C41B03AD019E304631
:100E50002946224603F035FD2E2030552919301938
:100E6000401C3A4615E03A1A911C029FB94213D22F
:100E70002E20019C607030232370A01C002A06D015
:100E800000240370401C641CA5B2AA42F9D87A1A47
:100E900003A903F06EFD0126304609B0F0BD000045
:100EA00080B584B00748784401F0B8FA0021039176
:100EB0000821029101900920010301A800F040FBE4
:100EC00004B080BDB43E0000F0B59FB0019106466D
:100ED00031200101214D284603F002FD1720400179
:100EE00000212954297015A8282103F0E5FC02A847
:100EF0004C2103F0E1FCC320840029193046FFF7A0
:100F0000B4F9002821D02A5DB92080002F1830467E
:100F10003946FFF709FA002817D02B5D29464831DA
:100F200015AE30463A46FFF744FA083502A9304676
:100F30002A46FFF783FA2821304603F0D1FC0198B6
:100F4000002807D0FFF79CFC02E0054800F038FBC2
:100F50001FB0F0BD01F0B6FAFAE7C046C8030020A2
:100F6000876A000080B584B0684601218170002244
:100F70004270017003920321029101900920010344
:100F800001A800F0DDFA04B080BD80B500F04AFD94
:100F900080BD0000F0B581B0F54D28780D2805DC46
:100FA000052800D1AEE00D280DD057E00E2800D165
:100FB00002E1152852D1EF488079012803D1A879A0
:100FC000000700D465E2EC4C002767600120207028
:100FD000204601F05BFC042001F0CCFC606000289E
:100FE00000D14DE2692800D1CAE1972800D147E23B
:100FF000C425E24C6059002800D139E2C226A05B2A
:10100000C821615C80B2884200D331E201F07EFCED
:10101000002800D02CE201F001FCAA2804D101F044
:1010200027FCAA2800D023E26159A25B50010818CE
:10103000D023E358002B04D09847002807D0A25BA8
:101040006159012801D15001081800F0EBFCA05BA8
:10105000401CA05361590029D2D109E2C64C002797
:10106000676001202070204601F010FC042001F090
:1010700081FC6060692800D0F2E000F079FC00F0AB
:1010800079FCC225BD4E7753042001F073FC6060EB
:10109000002800D1F4E1972800D1F1E1C4243059AF
:1010A000002800D1ECE1705BC821715C80B28842FD
:1010B00000D3E5E101F02AFC002800D0E0E101F0D6
:1010C000ADFBAA2804D101F0D3FBAA2800D0D7E1B8
:1010D0003159725B50010818D023F358002B04D00B
:1010E0009847002807D0725B3159012801D150017F
:1010F000081800F097FC705B401C705331590029B0
:10110000D2D1BDE1E44C0027676001202070204669
:1011100001F0BCFB042001F02DFC6060002800D130
:10112000AEE1972800D1ABE1692800D067E100F07B
:101130001FFC00F01FFCC225D84E7753042001F09D
:1011400019FC6060002800D19AE1972800D197E14E
:10115000C4243059002800D192E1705BC821715C31
:1011600080B2884200D38BE101F0D0FB002800D090
:1011700086E101F053FBAA2804D101F079FBAA28EB
:1011800000D07DE13159725B50010818D023F3582B
:10119000002B04D09847002807D0725B31590128F2
:1011A00001D15001081800F03DFC705B401C7053E9
:1011B00031590029D2D163E1B74D00266E6001207C
:1011C0002870284601F062FB042001F0D3FB686020
:1011D00069287BD100F0CCFB00F0CCFBC224AF4EE1
:1011E00000203053042001F0C5FB6860002800D1C6
:1011F00046E1972800D143E1C4257059002800D169
:101200003EE1305BC821715C80B2884200D337E197
:1012100001F07CFB002800D032E101F0FFFAAA289F
:1012200004D101F025FBAA2800D029E17159325BD5
:1012300050010818D023F358002B04D098470028F9
:1012400007D0325B7159012801D15001081800F014
:10125000E9FB305B401C305371590029D2D10FE1BA
:10126000C4258E4C6059002800D101E1C226A05B44
:10127000C821615C80B2884200D3F9E001F046FBEE
:10128000002800D0F4E001F0C9FAAA2804D101F046
:10129000EFFAAA2800D0EBE06159A25B50010818D0
:1012A000D023E358002B04D09847002807D0A25B36
:1012B0006159012801D15001081800F0B3FBA05B6F
:1012C000401CA05361590029D2D1D1E00446DC2052
:1012D000724D295800290FD00A46643A00D232468E
:1012E0002A50642908D8D8216958002904D0E0225E
:1012F000AA582A5000208847002C00D1C0E0972C23
:1013000000D1BDE0C424285900282BD0C226A85BF8
:10131000C821695C80B2884224D201F0F7FA002823
:1013200020D101F07BFAAA2803D101F0A1FAAA2862
:1013300018D12959AA5B50010818D023EB58002B6B
:1013400004D09847002807D0AA5B2959012801D169
:101350005001081800F066FBA85B401CA8532959EF
:101360000029D5D1C820285CC221695A84E0C04632
:10137000E00700206C09002060080020D80600204B
:1013800000F0F6FA00F0F6FAC225444E7753042036
:1013900001F0F0FA6060002872D0972870D0C42461
:1013A000305900286CD0705BC821715C80B28842D3
:1013B00066D201F0ABFA002862D101F02FFAAA2818
:1013C00003D101F055FAAA285AD13159725B500164
:1013D0000818D023F358002B04D09847002807D0D2
:1013E000725B3159012801D15001081800F01AFB35
:1013F000705B401C705331590029D5D140E0D42096
:10140000264C2058002803D0E978490800F052FB08
:10141000C425605900282BD0C226A05BC821615C7E
:1014200080B2884224D201F071FA002820D101F064
:10143000F5F9AA2803D101F01BFAAA2818D161599D
:10144000A25B50010818D023E358002B04D0984722
:10145000002807D0A25B6159012801D1500108186A
:1014600000F0E0FAA05B401CA05361590029D5D1DF
:10147000C820205CC221615A814201D301F046FAA2
:1014800001F044FA002801D100F054F9012001B024
:10149000F0BD052000F047F960080020D8060020C4
:1014A000B0B50546072028400024012812D00228A4
:1014B00012D1002907D00A4801F01CFA280609D5E4
:1014C00001F0A0F906E0412081000548002201F06A
:1014D00029FA04462046B0BD022000F024F9C04697
:1014E000680800200248002101700248016070472E
:1014F000C0030020BC03002010B50F4C217800224F
:10150000D04302290BD001290BD0002908D101209A
:1015100020700A480188002000F022FB10BD2270D4
:1015200010BD0220207005480188102000F018FB33
:101530000121217010BDC046C0030020BC03002063
:10154000F0B581B00D460027002816D00646406849
:10155000B168411A0B2004038120400081420DD85C
:10156000821C14493046FEF7F6FE0028394606D0A4
:101570007068B168411A2C4601E02C4639460E4D80
:1015800029600C48224602F0C1FF2868811C2960AE
:101590000A4C2278012A384607D0022A07D189B29C
:1015A000202000F0DDFA00212960277000E0F843D8
:1015B00001B0F0BD68080020BC030020C00300207B
:1015C00080B501460020FFF7BBFF80BD70B590B02D
:1015D000FFF788FF312001012A4803F081F92A4CE6
:1015E0002A4D01AE304603F0A3F9B08586B2002E35
:1015F0000BD0052E3CD001A8002181850B9801F06D
:10160000ABF93046FFF7DCFF17E001A801F0A4F9C1
:101610000B9000200D900E900F90FFF76DFF0028AB
:101620001FD402460DA8214600F0D6FE002811D096
:101630000DA8FFF7B1F8002813D401F081F901A932
:10164000884202D10B9801F087F901A8808D00280B
:10165000C7D00BE02846FFF7B3FF0B9801F07CF9E9
:10166000BFE70B9801F078F910B070BD00F05BF89F
:1016700001A8002181850B9801F06EF9052000F08A
:1016800052F8C046C803002068080020876A00009E
:1016900010B58CB06C46204603F04AF9A0850004D2
:1016A00006D1684601F058F90A90FF2001F014F9BC
:1016B00001F046F96946884202D10A9801F04CF9D6
:1016C0006846808D002801D10CB010BD00F02BF8C9
:1016D00080B5034979440020024602F02FFA80BD0C
:1016E0009839000080B5FF2001F0F6F880BD0000B9
:1016F00080B506480078002801D102F049FE04496F
:1017000079440020024602F019FA80BDD806002074
:101710000C39000080B5FFF7EBFF80BD80B50020DD
:1017200001F01AF980BD044601F00AF9214603F0E0
:101730000BF9000080B503487844052101F0DAF880
:1017400080BDC0464439000010B51648C078032853
:1017500007DC01280DD002281FD1134801F0C0FB7F
:1017600010BD042816D0082817D10F4801F0B6FB89
:1017700010BD0D4C0121204601F0ABFB204601F0CD
:1017800089FB0A488179002908D10C30122103F025
:1017900093F810BD044801F09FFB10BD0520FFF732
:1017A000C2FFC046E0070020F00900206C090020BD
:1017B0007F210140052903D802484018007B70476B
:1017C000002070476C09002080B51548C2787F2141
:1017D00011400279042A14D0022A06D0012A1DD110
:1017E000811D114801F066FA80BD052916D84A000E
:1017F0000C4B9A1800235382821D0B4801F0DEFA2D
:1018000080BD05290AD8074A521843797A2B00D39C
:101810007A231373821D044801F07AFA80BDC04612
:10182000E00700206C090020F009002070B5FF2AB5
:101830001DD815460E4604460D48427120210171FF
:101840005021017080212143C170D11C8170090A8F
:101850004170062101F04EF83046294601F04AF861
:101860006006000E034908187D210901418270BD00
:10187000E00700206C09002080B50A46014682205E
:101880001423FFF7D3FF80BD80B50A4601468320AD
:101890001423FFF7CBFF80BD10B52648817842782E
:1018A0001202521801780F2908DC0E291CD00F29CA
:1018B0002DD1012A32D1FFF747FF33E010292BD079
:1018C000162924D11C490B780124002B2BD10A2383
:1018D0000B7006238B717D2A00D37D224A80C11CA8
:1018E000164802F0EEFF1EE0134881686431816003
:1018F0001C21425A002A07D0642A134600D86423C8
:10190000643B4352642A10D9891E1029F1D1022068
:10191000FFF740FB044606E0032A01D2002402E060
:10192000FFF752FF0124204610BD00210170052061
:10193000FFF7F9FEE00700206C090020680800208E
:1019400080B500F051FF0D2802D3FF2000F0C4FF46
:101950000548202102F0B0FF00F0F2FA0348002110
:101960000160416080BDC0466C0900208C090020E8
:101970007047000002480021016041607047C04686
:101980008C090020F0B587B00546084600F046FDFA
:10199000002843D00446006900283FD0284600F0C4
:1019A0003DFD01466D461C22284602F08AFF26684E
:1019B000EE8067682F8100F0A9FF00282ED1B9B210
:1019C000B2B2174D65202870A06842434A435107C0
:1019D000D608002900D0761C04278740B8191D308E
:1019E000A870000A68700321284600F083FF68464B
:1019F0001C2100F07FFFA06828700121284600F01C
:101A000079FFE06800F00AFDB9B200F073FFB5B2EB
:101A1000206900F003FD294600F06CFF07B0F0BD1F
:101A2000E007002070B500F0F9FC0446C06900F042
:101A3000F5FC054621787F2008400AD0002D09D00A
:101A4000052802D1A07E00282DD000F05FFF0028DD
:101A500011D070BD00F05AFF0028FAD114481C259F
:101A600085700021417065210170032100F042FF63
:101A70002046294614E0284602F074FF06460C482A
:101A80006521017031461C318170090A41700321C2
:101A900000F030FF1C21204600F02CFFB1B2284698
:101AA00000F028FF70BD20462946FFF76BFF70BD90
:101AB000E007002070B5002825D00B460246124CE6
:101AC00003CC083C984201D1491C61601843002BAB
:101AD00002D02060054605E00025256065600B4EBC
:101AE000761C30439D4201D000236360082909D34E
:101AF000074C4C430123074DAC4201D29C072043C5
:101B0000DB079843904770BD8C090020FFFFFF7FE3
:101B1000ABAAAAAA56555555F0B581B00F4E01246F
:101B20003470B11CFF2702377A1C204600F0C8FE33
:101B3000054670703A1A8719F91C022000F0C0FEA1
:101B4000B8702D18AE19F47000F0AEFE0021B1711E
:101B5000902171713071E81D01B0F0BD680800205E
:101B6000F0B585B00246400707D01646F0B289B2FC
:101B7000FFF796FC80B205B0F0BD844D85487844EF
:101B80000090814C1646102717400804049677D021
:101B9000002F75D10291039200F0B8FE002808D002
:101BA00080210022204600F0BDFE012000F0FCF85C
:101BB000F2E7A8682978092908DD0A29029A0ED0D7
:101BC00001900B2922D17548784404E0019007293F
:101BD0000098029A17D191B200F01EFA1DE0FF2082
:101BE000063096B2864200D3CBE0A270532020701C
:101BF000100A60700321204600F07CFE64483146E4
:101C000000F078FE27E0002900D1B7E0F0B291B2F1
:101C1000FFF746FC002800D0B0E0287800281AD052
:101C20007D20000101990E185D487844052100F0DF
:101C300061FE80210022204600F074FEA868B042B8
:101C400000D398E0FFF728FE00F060FE0028F0D1F6
:101C500028780028E8D10020A871287068800499AD
:101C6000890687D44C487844052100F043FE049847
:101C700040B20028039A03D5052000F02DFE039AF8
:101C8000002F434F04D1500672D40020A871287051
:101C90000020688043487844052100F02BFE802115
:101CA00000262046324600F03DFE03280FD3A178DF
:101CB000627812025118C91C814208D1FFF7ECFD6D
:101CC00028780028E6D068880028E3D001E02E704C
:101CD000DEE73978B02900D04CE77978A72910D011
:101CE00002291DD0012900D044E7B978FA780A43C7
:101CF00000D03FE70720049E0640FFF70DFF014696
:101D000031E0B978FA780A4300D033E720494E70C1
:101D1000902008707F20C043049E0643022122E0E9
:101D2000B978FA780A4300D024E700F0A1FDAA2888
:101D300010D10120164F3870B81C402100F08CFDE6
:101D40007870811C89B290227A54C11C89B27E5469
:101D5000011D05E085200E494870692008700221A8
:101D60000720049E0640F2B2700700D10BE7FDE6A3
:101D70006888401FFEE60520FFF7D5FC0420FFF72A
:101D8000D2FC0220FFF7CFFCE00700206C09002006
:101D900068080020F7FCFFFF16340000BDFCFFFFC1
:101DA00052340000E6330000B0B504460F487844D2
:101DB000052100F09FFD0B4D80210022284600F0F8
:101DC000B1FD2878152808D8012181400648014234
:101DD00003D0002C01D00020B0BDFFF75DFD411EF7
:101DE0008841B0BDE007002020702000CE32000006
:101DF000F0B581B0009205464A4CA1420FD00F4683
:101E0000484C40262046314602F056FD009A402AB2
:101E100000D332462046394602F057FD414CA078A7
:101E200001280ADC00282ED001286AD1E01C0421F8
:101E3000FEF79AFB4021204630E002282CD00528EE
:101E40005FD12079E17809020818374E3168002700
:101E500081425DD13068002823D00098401F82B2B3
:101E600032490B68934200D20868224681B23B296E
:101E700000D33B2085B22E4C2068511D2A4602F02B
:101E800024FD246833E00027A77167712771E7708C
:101E900040212046A8473BE022484021A847002790
:101EA00036E0A079617909020918224801600168C9
:101EB0004122920091422BD800681C49086060784A
:101EC0002278120210181C4A10600A680098C01F7D
:101ED00083B29A4200D2086881B2392900D33920EE
:101EE00085B2E11D154C20462A4602F0EAFC0F4857
:101EF0000168491B016060190D4908603068401C89
:101F000030600A480068002801D0012707E0022756
:101F10000548002101600648016004480160384618
:101F200001B0F0BD94090020D4090020DC09002094
:101F3000E0090020D8090020E409002068080020FA
:101F400003480021016003480160034801607047B5
:101F5000D4090020E0090020DC090020F0B581B0A0
:101F6000274A1568274B1968002921D0002D1FD05A
:101F70000090274C671D3B263846314602F09CFCFA
:101F8000204A0520A07023480168090A21700068D2
:101F900060701D490868000AE070086820710968CF
:101FA000106800290CD03B2800D81668384612E08B
:101FB00015480021016011601448017019601DE08E
:101FC000392801D9392600E016681068000A6071C6
:101FD0001068A071E01D2946324602F076FC094BDC
:101FE000009A07491868801B1860A81908600649FC
:101FF0000868401C086006484021904701B0F0BDC9
:10200000E0090020DC090020D40900206C09002030
:1020100094090020E409002080B500290BD0064A6D
:1020200000231360054A1160054A064B1360064AF7
:102030001160FFF793FF80BDD4090020DC09002068
:10204000E009002068080020D809002081B0F0B520
:1020500090B015930990002800D1ADE10D460229FA
:1020600000D2A9E114460998294602F025FC15A8DA
:102070000B902078002800D19EE1691E0891012173
:1020800006910026089D002805D0252803D0A01918
:102090004078761CF7E7AE4200D32E4609982146D9
:1020A000324602F012FCAD1B089500D184E109987C
:1020B00080190990A05DA419252800D077E1641C3F
:1020C00000202023074607902178641C00222D2938
:1020D0000DDC1046F8D0252900D1E1E02A2900D0F6
:1020E00064E12078732800D061E1022028E04729CC
:1020F0002BDC0A46303A0A2A11D20A971F463022B0
:102100000B465340079D2B4300D03A460A23079DB8
:102110006B4359183039079113460A9FD4E72E298B
:1021200000D043E120782A2800D040E16078482898
:1021300004D0732802D0682800D03BE1641C012041
:102140000B990A1D0B920F68BEE7672909DC62290B
:102150000FDC482900D1A5E0582900D026E1012054
:1021600020E0722917DC682900D19FE0702918D07F
:102170001CE1632900D19EE0642900D016E10B9890
:10218000011D0B910068C11742184A40C10F002081
:1021900002900A270DE0732900D199E0782900D038
:1021A00004E1002002900B98011D0B9102680021B0
:1021B0001027079E0A9297420393049101D90125A3
:1021C00011E0721E384605461646002138462A465A
:1021D0000B4602F04DFA4A1E91410A9A904202D8EB
:1021E000721E0029EFD00796002604990029059455
:1021F00001D1019101E0F0430190039B0798401A3F
:102200000029069C09D0D9B200263029344604D1D1
:102210000CA92D220A700126069C811E0D290BD8BF
:10222000411E09D00CA88019DAB202F052FB0798BF
:10223000301801994018461E002C03D10CA82D21FE
:102240008155761C002D1AD03C460298002802D0F9
:10225000604F7F4401E05E4F7F440A98294602F0B8
:102260005BF9214602F0DEF9785C0CA98855284616
:10227000214602F051F9761CAC420546EDD9089C86
:10228000A64200D326460CA90998324602F01DFB4F
:10229000A41B0894059C00D18EE00998801984E065
:1022A00025200CE02546484A7A4402E02546474A64
:1022B0007A44069B10E00B98011D0B910068099968
:1022C00008700898401E089076D00998401C6CE071
:1022D00025463C4A7A4400230B990C1D0B94C0B24E
:1022E000096802283CD001282C460AD0002837462D
:1022F00007D1254600200C5C401C002CFBD1471E5A
:102300002C46002B20D0002F089D4FD07800281A93
:102310000A90022D50D328460B7825461C09145DDF
:10232000099E34700F241C40135D7370022843D043
:102330002C460546851E099B9B1C0993491C7F1E44
:10234000E7D10A98089031E0089DAF423E4601D39C
:102350002E462F460998324602F0B7FAAD1B0DE023
:10236000087800282C4621D1089DAF4200D32F4683
:1023700020220998394602F0ACFAED1B08951BD0D3
:102380000998C01909900798B0420FD9851B089E7B
:10239000B54200D3354620220998294602F099FA21
:1023A000761B089608D009984019099020780028D3
:1023B00002D066E62A20FAE7002010B0F0BC02BC8A
:1023C00001B00847AD2D0000E92D0000D12D00001F
:1023D000292E00003F2E000010B50023052A13D33C
:1023E0000C79521FA2420FD10A7802704A784270CB
:1023F0008A788270CA78C2700A7902710A79002AD2
:1024000000D04A1D82600123184610BD7A46024959
:10241000C91C891A401A70470D24D0C080B50449E0
:10242000884204D30349884201D2FFF7EFFF80BD01
:102430000000D0C00057D0C0425C1206401841785E
:1024400009048918827812028918C0780818704720
:1024500010B543185A7912041C792406A2189C79E5
:1024600024021219DC791219405C0006597809041B
:102470000818997809024018D9784118104610BDFB
:10248000425C401841780902891882781204891840
:10249000C078000608187047425C4118487800026E
:1024A00080188A7812048018CA78120680180A796F
:1024B0004B791B02D2188B791B04D218C9790906F3
:1024C00051187047B0B59CB003AD0420687041202E
:1024D0002870A81C0D4C21460831402202F0F1F969
:1024E000422020222A54284643304834214602F014
:1024F000E8F9002002906320019000950920010373
:102500006846FFF71DF81CB0B0BDC046C8030020E8
:10251000F0B597B004AE751C4921284602F0CCF9FD
:102520005B20C0000C4F3C5C34702920000139183E
:102530002846224602F0C5F9A0190849795C417085
:1025400000200390A01C029001960920010301A81D
:10255000FEF7F6FF17B0F0BDC8030020D902000057
:10256000F0B503AF8FB06E46054600293AD017216B
:1025700048018F4C205C012800D0B5E01346716003
:102580004120C000F06020586A681118002B4AD022
:10259000FF235B00994200D9A8E0002A00D1A7E000
:1025A000201829680978017269680229F36816D32E
:1025B0001F20C043B0600922E15861182B689B18A6
:1025C00020462C46B568EB18254604461B7E8B54E6
:1025D000531C6968D21F8A421A46F368ECD3E0584C
:1025E0001A4687E031200101714C204602F078F94B
:1025F000172040010121215400202070C3208000B9
:10260000211804462846FDF730FE002809D0684905
:102610000A5DB920800009182846FDF785FE0028CC
:102620006AD16A486AE0FF235B0099425ED82118AC
:1026300008312846FDF7A3FE002857D0F268A058BD
:1026400069684018A0500025B563706320460830C3
:10265000306321200001B0602118F01D2930FDF702
:1026600093FF012850D1012030602070B068245CB5
:10267000F01D09301F21B16002F01EF90A2C01D8AB
:102680007068B060524878445249794422460A2C16
:1026900001D84A1900E042191278F31D09335A553E
:1026A0006D1CB268AA42F1D12720000140490D18E3
:1026B0002021284602F000F90D2C15D83168A140E0
:1026C0003E48014222D13E48014247D13D480142A5
:1026D0000AD01F20C043364C211829228B5C1201DE
:1026E0008B54401CF8D35FE0324807E0364805E0E1
:1026F0000021F2684018A05009200003FEF760FF97
:10270000FC1F053CA546F0BD2B48F7E7872080005D
:10271000274B1858B16841183160C91D07229143F1
:102720006A46F2606A46511A71608D4600280AD0E6
:10273000112149015958726803460C781470491CDC
:10274000521C5B1EF9D174682018F11D0931B26862
:1027500002F0B7F820232046316820E0F068144BDF
:102760001858421EB06810187060C01D07218843B9
:102770006946F16069460C1AA546002A06D009335D
:1027800020461946326002F09CF83268A018F11D0C
:102790000931B26802F095F82023204671682A4674
:1027A000FDF7DCFEF0688546FEF7CEF8A8E7C046E8
:1027B000C803002007B0000005B0000002080000B8
:1027C000041000000820000004B00000876A000028
:1027D000322A0000172A000001DF002900D17047CB
:1027E0000846FEF7A0FF000080B584B000200290EC
:1027F0000190034801A9FFF7EFFF04B080BDC04678
:102800003801006080B582B000200190024869461E
:10281000FFF7E2FF02B080BD3C02006080B582B0ED
:102820000020019003486946FFF7D6FFC0B202B00E
:1028300080BDC0464F9F006010B588B00A9C0594CB
:102840000493039202910190024801A9FFF7C4FF8B
:1028500008B010BDBA53006080B584B001910090FB
:1028600002486946FFF7B8FF04B080BDFCA80060CD
:1028700080B582B00020019003486946FFF7ACFFA5
:10288000C0B202B080BDC0463CA0006080B584B03C
:10289000002102910190034801A9FFF79DFF04B0B8
:1028A00080BDC0465864006080B582B000200190B1
:1028B00002486946FFF790FF02B080BD6E6A006073
:1028C00080B586B001AB07C3024801A9FFF784FFBA
:1028D00006B080BDD474006080B584B00021029140
:1028E0000190034801A9FFF777FF04B080BDC046FF
:1028F000BE9A006080B584B001910090024869469C
:10290000FFF76AFF04B080BD8183006080B582B0AC
:102910000020019002486946FFF75EFF02B080BDCB
:10292000BB84006080B586B001AB07C3034801A932
:10293000FFF752FF80B206B080BDC046E48500605C
:1029400080B582B00020019002486946FFF744FF3D
:1029500002B080BDB187006080B584B000210291D3
:102960000190034801A9FFF737FF04B080BDC046BE
:10297000060B016080B584B00021029101900348EC
:1029800001A9FFF729FFC0B204B080BD8B9C006095
:10299000024900200860024908607047EC090020E5
:1029A000E809002010B507480221C170012181709B
:1029B000002444704F2101700421FFF79BFF204643
:1029C00010BDC046E007002070B582B06D460024FF
:1029D0002C710320E8700220A8706C704F262E70B6
:1029E00005212846FFF786FF0120E870A8706C706B
:1029F0002E7004212846FFF77DFF204602B070BDEF
:102A000010B582B001A80221C1700121817000249B
:102A100044704F2101700421FFF76CFF204602B083
:102A200010BD000070B582B0144800240460144842
:102A300004606D46AC716971012028710421E97050
:102A40000526AE706C704F242C70012A05DC002A1C
:102A50000AD0012A0AD1084606E0022A03D0032A36
:102A600004D1022000E00320694688716846C371E2
:102A70000821FFF73FFF002002B070BDE8090020E9
:102A8000EC090020B0B582B00D46684600244471C0
:102A900040210171C5700321817044705021017083
:102AA0000621FFF727FF280601D5074800E0054863
:102AB00001687F2215400122AA400A430260204695
:102AC00002B0B0BDEC090020E8090020B0B582B02A
:102AD0000D4668460024447180210171C5700321B0
:102AE00081704470502101700621FFF703FF280612
:102AF00001D5074800E0054801687F221540012202
:102B0000AA4091430160204602B0B0BDEC0900200C
:102B1000E8090020080601D5054800E003480278CE
:102B20007F2001400120884010407047EC090020C0
:102B3000E809002010B582B0684601710321C17018
:102B400002218170002444704F2101700521FFF79C
:102B5000D1FE204602B010BDB0B582B01C4615466D
:102B60006846437120220271C17050210170D91C46
:102B70008170090A41700621FFF7BCFE28462146F4
:102B8000FFF7B8FE002002B0B0BD10B582B06846B5
:102B9000427130220271C17003218170002444709F
:102BA000502101700621FFF7A5FE204602B010BD9E
:102BB000F0B581B0002814D015460E4604460746ED
:102BC000DC3745208100204601F076FE002E00D043
:102BD0007E612570012038702046FFF7D9FE002065
:102BE00000E0022001B0F0BDB0B50446DC200121B8
:102BF00021541720C54360194321890040580028FB
:102C000006D04068FFF70AFC02462179204690472B
:102C10000835F0D12046FFF7F3FE2046FFF7C2FE4D
:102C20000020B0BD002A08D003460020022B03D8A4
:102C3000DB00C918F423CA5070470220704780B5E2
:102C4000FFF7C2FE002080BDF0B581B00C460546FE
:102C50000026F4272846314600F05FF9002807D007
:102C6000E8590068FFF7DAFB0246284621469047FC
:102C70000837761C032EEDD1002001B0F0BDF0B571
:102C800081B00C4605460026F4272846314600F060
:102C900044F9002807D0E8594068FFF7BFFB024617
:102CA0002846214690470837761C032EEDD1002098
:102CB00001B0F0BD70B504460646D436354614352D
:102CC000284600F061FBD42001212150EE20205A3B
:102CD0007060317D1F200840022808D001280BD0E9
:102CE00000280ED12046294600F022F90EE02046A9
:102CF000294600F0C6FA09E02046294600F09DFA70
:102D000004E0802001402046FFF7BCFE002070BD9B
:102D1000F0B583B0029204460646DC3601910029E4
:102D20001AD00027F4252046394600F0F6F800288E
:102D30000DD060598069002809D03178032906D167
:102D4000FFF76CFB034620460199029A9847083525
:102D50007F1C032FE7D12EE020468030416D0329F0
:102D600029D10068E16F81420AD9091AE1678142DD
:102D700000D301468AB22046029900F01FFD1AE0F6
:102D80000025F4272046294600F0C7F800280BD07C
:102D9000E0590069002807D03178032904D1FFF7F2
:102DA0003DFB01462046884708376D1C032DE9D1BD
:102DB000204600F00AFD002003B0F0BDF0B581B060
:102DC00004460746D437009100291AD03D46002614
:102DD000F4272046314600F0A0F800280CD0E05936
:102DE0004069002808D0297A032905D1FFF716FB8E
:102DF00002462046009990470837761C032EE8D1FA
:102E000045E0386802283CD1E069256AA84209D922
:102E1000401BE061F96B4919F96382B2204600F06A
:102E2000BFFC2EE0A6693046294601F0FBFBAE420E
:102E30000CD300290AD17868864207D200252046A3
:102E400029462A4600F0ACFC7D601AE00025F426F5
:102E50002046294600F061F800280BD0A059C06830
:102E6000002807D0397A032904D1FFF7D7FA0146A1
:102E70002046884708366D1C032DE9D1204600F016
:102E8000B0FC387B012802D139460020387300207D
:102E900001B0F0BD70B50446DC2001212154802032
:102EA0004021215021620025F4262046294600F0C9
:102EB00034F8002807D0A0594068FFF7AFFA02465F
:102EC00021792046904708366D1C032DEDD1002056
:102ED00070BD0174002070470020704700207047CB
:102EE00070B50446DC20205C032814D10025F426AC
:102EF0002046294600F011F8002808D0A059C069E2
:102F0000002804D0FFF78AFA014620468847083691
:102F10006D1C032DECD1002070BD022906D8C9001C
:102F20004018F4214058411E8841704700207047E6
:102F300080B54A78042A08DD072A0FDC052A14D058
:102F4000062A1BD100F021F81DE0002A10D0012A2A
:102F500017D0032A12D100F02AF914E0082A0AD067
:102F6000092A0BD100F0B1F80DE000F08BF80AE06F
:102F700000F0F9F807E000F0DFF804E000F06EFB85
:102F800001E000F031F9002080BDB0B582B00D46FF
:102F9000044601A8002101802046F0306B881A0AFF
:102FA000052A11DC012A1AD0022A21D0032A32D1A3
:102FB000D9B2022934DC002958D001295CD0022979
:102FC00029D10068C0680CE0062A19D0072A1FD052
:102FD0000F2A20D10068C069002802D11BE00068D8
:102FE0000068FFF71BFA0246207C01A990472BE0FE
:102FF0004068002829D0217C00291FD0C06A1EE02B
:10300000217C002907D14068002804D0406B16E0DD
:10301000217C00290DD02046294600F01FFB23E02B
:10302000032926D004292AD00529F4D10068806913
:10303000D7E740680028EED0006B00E0806AFFF719
:10304000EDF9014601A88847014601A80288002A37
:103050000AD0E888002807D0824200D3024601A89F
:103060000280204600F086FB02B0B0BD00684068D8
:10307000B7E700680069B4E700688068B1E70068F6
:103080004069AEE770B504468888002807D1C88833
:10309000002804D12646DC363078032803D12046A8
:1030A00000F0DCFA70BD88787F250540B5702046B9
:1030B0002946FFF73FFD204600F087FB002D01D099
:1030C000022000E00120307070BD70B50D4604464E
:1030D0008E78022E1CD2DC20215C2046DC300329B5
:1030E00006D0022914D1002E22D00321017008E05D
:1030F000002E12D06068B0421AD0C1B22046FFF74D
:10310000BEFD666020463146FFF79EFD02280FD1C6
:103110002046294600F0A2FA70BD0021616002211C
:10312000017020463146FFF7AAFD204600F04DFB16
:10313000204600F04AFB70BD80B5CA88012A0AD13A
:10314000DC22825C032A09D0022A04D1002181609A
:103150000146083103E000F081FA80BD011D012223
:1031600000F008FB80BDB0B50446DC20205CFE22E8
:103170000240022A0FD12046DC300121E1602546C1
:103180000C35806800280AD0204600F02AFBE16850
:103190000220084304E0204600F060FAB0BD03209E
:1031A000E06002222046294600F0E4FAB0BDB0B546
:1031B00004464888012816D10D46E42001212150FB
:1031C000287902280CD8C0002018F4214058002883
:1031D00006D08068FFF722F902462046294690472C
:1031E000204600F0F2FAB0BDB0B50D460446DC2032
:1031F000205CFE21014002291AD1688801281BD1D8
:103200002046DC3000218160287902280CD8C000DB
:103210002018F4214058002806D08068FFF7FEF8F7
:103220000246204629469047204600F0CEFAB0BD1F
:103230002046294600F012FAB0BDB0B50D4604464E
:10324000DC20205C032816D12879022813D8C0007E
:103250002018F421405800280DD08068FFF7DEF8D0
:103260000246204629469047E888002807D1204694
:1032700000F0ABFA03E02046294600F0EFF9002009
:10328000B0BDB0B582B00D46044609797F20084034
:10329000072804D32046294600F0E0F971E002290E
:1032A00012D82A7860231340202B0DD1CA00A2180F
:1032B000F423D258002A07D09068FFF7AFF80246EF
:1032C0002046294690475CE06A78002A0AD0012A05
:1032D00011D0032A55D1DC20205C03281AD0022803
:1032E0000FD0D7E7DC22A25C032A2ED0022AD1D14C
:1032F00000280BD145E0DC22A25C032A31D0022A4F
:10330000C8D180200A460243802A3AD02046FFF7DF
:10331000B9FB36E06888002807D180200843802860
:1033200003D02046FFF7AEFB2979022926D8C80032
:103330002018F4214058002820D08068FFF76EF84C
:10334000024620462946904718E02046FFF7E2FB58
:10335000411E884101A908800222204600F00AFA95
:103360000FE06A88002A0CD1002807D02046FFF71A
:10337000ADFB2879022801D8C000D9E7204600F02B
:1033800024FA002002B0B0BD0A7802704A78427078
:103390008A78CB781B029A1842800A794B791B02F3
:1033A0009A1882808A79C97909028918C180704780
:1033B00010B504468021FFF765FB00212046FFF78A
:1033C00061FB10BDF0B583B00E46054602A800248F
:1033D000048001A8047009786020084010D02028DB
:1033E00037D1707801460A39022932D302281BD01E
:1033F000032819D02846314600F030F9022428E08D
:1034000070780B2813D00A280ED0062821D1F07826
:10341000002421280FD022282246214616D102AFAF
:10342000384600F049F80AE001A901220EE02846DA
:1034300000F0CBF90DE002AF384600F029F8014664
:103440003A88F088824200D302463A80284600F04B
:1034500091F9204603B0F0BDF0B581B00446822159
:103460000326402532462B46FFF7DCFA022720468A
:10347000394632462B46FFF7D5FA204639462A46CA
:10348000FFF783FB002001B0F0BD00207047000073
:103490000146EC20064A125C0020002A01D00346B7
:1034A00000E009230B80002A01D1024878447047CC
:1034B000F00900202C1C00000146EC20064A125C9A
:1034C0000020002A01D0034600E022230B80002ABE
:1034D00001D1024878447047F00900200D1C00001B
:1034E00080B5022903D103487844FEF737FD002058
:1034F00080BDC0468DE3FFFFB0B502291AD1144646
:1035000002214022FFF741FB0B4DA879002811D181
:103510000220FEF74DF90246094878442146FEF79D
:1035200067FC022806D1072028700120A8710348F3
:10353000006868800020B0BD6C090020D809002018
:103540005BE3FFFF70B504468321032540262A462E
:103550003346FFF767FA204629462A463346FFF7E7
:1035600061FA204629463246FFF70FFB002070BD66
:10357000002070470020704780B5032903D103481D
:103580007844FEF7EBFC002080BDC04605E3FFFF5A
:10359000B0B503291AD1144603214022FFF7F5FAEA
:1035A0000B4DA879002811D10320FEF701F902463E
:1035B000094878442146FEF71BFC022806D10B205F
:1035C00028700520A8710348006868800020B0BDFD
:1035D0006C090020D8090020D3E2FFFF12200880E8
:1035E000014878447047C046421D0000042008800E
:1035F000014878447047C046441D00000E200880F2
:10360000014878447047C046381D00000E200880ED
:10361000014878447047C046361D00000A200880E3
:10362000014878447047C046341D00000E200880D1
:10363000014878447047C046161D00000E200880DF
:10364000014878447047C046061D000039200880B4
:10365000014878447047C046B11A000080B50A7826
:1036600052B2002A02D4FFF7A3FE80BD4A78772A1F
:103670000CD0062AF7D14A88144B9A42F3D1CA8853
:10368000122A00D31222124979441CE08A88042AA3
:1036900006D1CA88282A00D328220E49794412E08C
:1036A0008A88052A06D1CA88922A00D392220A491A
:1036B000794408E08A88072AD5D1CA88B22A00D37B
:1036C000B2220649794400F055F880BDEE030000AF
:1036D000D41A0000C41C0000BE1A00003C1B0000ED
:1036E000B0B50446452085001548294601F0E4F8A8
:1036F00014480C30122101F0DFF8002C1BD0104CC4
:103700002046294601F0D8F80F4979440025204683
:103710002A46FFF74DFA0D4A7A4428462146FFF71C
:1037200081FA01200A4A7A442146FFF77BFA2046B3
:10373000FFF785FAB0BD0248FFF756FAB0BDC046A4
:10374000F00900206C090020321A00009C1B0000C8
:10375000C61B000040210180014878447047C046E4
:103760002E1C00000A210180014878447047C046A1
:103770005E1C0000B0B50C46D42102234350826188
:10378000C2610146D431CC63016A914200D80A4635
:1037900093B2002529462246FFF7DEF92846B0BD40
:1037A000B0B50C46016A914200D80A4693B2002592
:1037B00029462246FFF7D0F92846B0BD10B50024AF
:1037C0002146FFF7E2F9204610BD10B5D4210422AE
:1037D00042500024214622462346FFF7BDF92046E9
:1037E00010BD10B5D42105224250002421462246A6
:1037F000FFF7CBF9204610BDF0B51146194310D0A4
:1038000000210E460C46771C4C418557002D04D4F0
:10381000BE1A26469E413E46F5D3002D01DA002011
:10382000F0BD0120F0BDF0B585B002900027501C1E
:1038300004901D467D41012420020D9E0C990391A8
:10384000801A3846984111D304980399081A3046D3
:10385000A8410BD30A98009002990292029A019310
:1038600001F033F8029A019B009887540498039959
:10387000081AAE41204600D23846FF210231511AC3
:10388000BB4100D33C460440204605B0F0BD0000DB
:1038900010B511490A780120012A1BD8521E0C23A9
:1038A0005343CB189A8B002A14D05969002911D0A0
:1038B0001B8B002B05D194006418241F2468E41C82
:1038C00008D1934205D29A005118091F0968891C32
:1038D00000D0002010BDC046D806002010B50E490B
:1038E0000A780120012A16D8521E0C235343CB1804
:1038F0009A8B002A0FD0596900290CD01B8B541EBB
:103900009C4208DD921E9A4204DD9A0051184968D3
:10391000891C00D0002010BDD8060020094801787D
:1039200000290CD00C224A431118C8898989814288
:1039300001D9012004E0814201D2FF2000E00020F3
:1039400040B27047D806002070B50146154A10787D
:10395000012826D8401E0C234343D218958B002DF6
:103960001FD05469002C1CD0012D1AD0138B6E1E51
:103970009E4216DD16461836AD1E9D420ADB9D009E
:103980002C196468A51C0CD0E41C03D100213180E3
:10399000518304E05C1C34805383002901D000F083
:1039A00039F870BDD806002080B50120FFF7CCFFA4
:1039B00080BD0000B0B516490878012826D8401E01
:1039C0000C22424389188A8B002A1FD04C69002C94
:1039D0001CD0012A1AD00D8B0B461833002D09D0AC
:1039E000AA001219121F1268921C0FD06A1E1A80A8
:1039F0004D8309E095002C19241F2468E41C05D18F
:103A0000941E1C80521E4A8300F004F8B0BDC046CC
:103A1000D8060020F0B581B004460C2060431A4956
:103A20000E187069318B890040580321C9438842C0
:103A300027D8374618371436FEF7F0FC31683A8835
:103A40009200895805680846FEF7E8FC002D06D06C
:103A50000068FEF7E3FC01462046884711E08068D5
:103A6000FEF7DCFC05463068398889004058FEF7CF
:103A7000D5FC4068FEF7D2FC02462046294600F0FD
:103A80005DF801B0F0BDC046D8060020F0B581B0A9
:103A900029480178012925D84C1E0C21614345187D
:103AA000A98B00291ED0686900281BD02A8B8A4266
:103AB00018D22F4614372E46183691004058FEF77C
:103AC000ADFC806800280FD03868318889004058E4
:103AD000FEF7A4FC8068FEF7A1FC01460022204608
:103AE00000F02CF801B0F0BD28461C3000880028FA
:103AF000F8D0801E32889042F4DB396893005B185E
:103B00005B68DF1C10D09B1CECD11346920052184E
:103B10005268921C04D15B1C33809AB29042F5DA51
:103B2000581C30806B8302E0002030806883204680
:103B3000FFF770FFD6E7C046D806002070B5002812
:103B400000D070BD14460D46194E301D1A2100F0EC
:103B5000B3FE002DF5D02846FEF760FC7061B18BF6
:103B60008A008258521C06D0491C8AB292008258A0
:103B7000521CF9D1B183002C16D02046FEF74EFC22
:103B800004467069318B89004058411C0CD0FEF707
:103B900045FCA04208D0308B7083401C3083716993
:103BA00080B280000858F0E70020FFF733FF70BDB7
:103BB000D806002080B50A49884208D009498842C1
:103BC00008D00949884208D1FFF7F4FE05E0FFF765
:103BD0005DFF02E00120FFF7B7FE002080BDC04678
:103BE00003000080020000800100008010B5014643
:103BF000002000290FD1084CA18B228B8A420AD2C7
:103C00006069FEF70BFC218B89004058FEF706FC2B
:103C10004068FEF703FC10BDD806002080B50348BD
:103C20000078401EFFF7E2FF80BDC046D8060020A6
:103C300010B5044600F0E6FB24206043084908184C
:103C4000C82105224254C421064A7A444250D42154
:103C5000054A7A444250C1210122425410BDC04657
:103C6000D80600208A1700005FFFFFFF80B500F034
:103C700063FB002807D0A12203498A5C112A02D1E4
:103C8000B822024B8B5280BDD80600200A8000006B
:103C900010B50446FFF7CCFF242060430449081800
:103CA000D021044A7A444250204600F085FB10BDE2
:103CB000D8060020C5FFFFFFF0B581B0009316467F
:103CC0000F460546FFF7B4FF094C6168221D0A2321
:103CD000384600F055F9242068432018D421465076
:103CE000D021009A4250284600F066FB01B0F0BD9A
:103CF000D806002010B50446FFF790FF4168044A3B
:103D00007A44044B7B442046FFF7D6FF10BDC046E3
:103D1000150000002500000080B50349794400F03B
:103D2000F9F8002080BDC046D5FFFFFF10B504465E
:103D3000FFF774FF06C8204600F04EF810BD0000E3
:103D4000F0B583B000920E4602901A4C277B0025F6
:103D5000E8430190FFF7E2FD012804D0401C06D1A2
:103D60000198606000E06560A560E56025612773EB
:103D7000029800F047FB412080002058304301D1D9
:103D80000D4E7E44009F221D0A233046019900F00B
:103D9000F7F8A060002805D0401E6168814205D96F
:103DA000606003E06560A560E56025610298B84742
:103DB00003B0F0BDD8060020210C000010B5044669
:103DC000FFF714FF4168034A7A442046FFF7B8FF23
:103DD00010BDC04629FFFFFFF0B583B015460E4663
:103DE0000746464CA03420222046394600F06DFD9F
:103DF0007878102818DC01282DD0022834D010281B
:103E000078D1002E58D03D498D6830460E46FEF7D9
:103E100005FB03467068B168401C00900191012DBC
:103E200055D8394A7A4454E001461139032961D200
:103E30000F21084001285DD13048068A002E59D054
:103E40007F2E00D37F260291002D19D02846FEF741
:103E5000E5FA2A4F18E0FFF71BFD00284AD0274853
:103E6000406800280AD045E0FFF738FD002841D01F
:103E7000224948688968491E88423BD1002439E0BC
:103E8000412080001D4F3858F989401800903D4668
:103E9000203580211E4A7A4428463346FEF7D6F85C
:103EA000BC203D50397B0298014015480F2900D0B5
:103EB000801CB82178521DE0104E7168B0680090E7
:103EC000304620304B1C8021104A7A4404E00D4AD1
:103ED0007A44304620308021FEF7B8F83046203052
:103EE000BC2170500648317B09090E2900D8801C7E
:103EF000B8217052204603B0F0BDC046D80600205D
:103F00000880FFFFA41500005B160000B815000034
:103F10001D0C000080B5164A90420BD0154A904205
:103F200013D0154A90420FD114484268002A1BD082
:103F3000521E14E011498868002803D04968401EC9
:103F4000884201D1FFF7A2FD80BD0C48426883681A
:103F50005B1E9A4202D1FFF727FD80BD521C4260D2
:103F60000078401E884780BDFFF724FD80BDC04615
:103F7000030000800200008001000080D8060020BD
:103F8000F0B58DB000239381029353814B1C0593B0
:103F900003D053688B4200D8AEE00491039200280E
:103FA00002D0FEF73BFA03E0412080005449085854
:103FB000044600F0D7FC014601200290012900DAF6
:103FC0009AE066184E48027B0F200C9002400020B9
:103FD000079001940896B442204600D83046001B52
:103FE0000690002320460994E518B54239D21F46B1
:103FF0000A905B1C180624D000210B931E462078E3
:1040000040B2C3B2202B0CD300280AD43D487844D8
:104010001818203803780F2A08D10C980340C918C3
:1040200006E00A2B08D00D2B02D105E0180909186B
:10403000761E641C3006E2D17229089E099C0B9BF7
:1040400011D8297808460938022806D3202904D037
:104050002D2902D05F2900D00A9D28460A29C3D104
:1040600003E0069B01E03B460A98E118B14215D2F5
:10407000002B13D0A04211D007461D46481E0378DE
:104080002C2B06DC18460938022806D3202B04D036
:1040900018E02D2B01D05F2B14D12B46059800285A
:1040A000049906D00798884203D103984068884253
:1040B0001DD8E418B44202D20798401C0790B442BD
:1040C00089D310E009782C292B4606DC08460938EC
:1040D0000228E3D32029E1D003E02D29DED05F2997
:1040E000DCD03B1BDAE70798401C029004E0039900
:1040F0008B810198201A488102980DB0F0BDC0460E
:10410000D80600207A140000F0B581B00646FFF70B
:1041100085FD0546114F3C46A034202220463146FD
:1041200000F0D3FB70780F2806DC01280AD00228A3
:1041300011D1FFF7D3FB07E0102809D011280AD1CD
:10414000686806E0FFF7A4FB002804D0002402E022
:104150002868BC217850204601B0F0BDD806002068
:1041600010B5044600F04EF9242060430B490818AE
:10417000C82105224254C421094A7A444250D4211C
:10418000084A7A444250D021074A7A444250C12119
:1041900001224254204600F00FF910BDD80600203D
:1041A0006E1300002FFAFFFF7BFFFFFFF0B581B019
:1041B0000646FFF733FD0546144F3C46A034202247
:1041C0002046314600F081FB70780F2807DC01287B
:1041D00011D0022812D00F2815D1286808E0103815
:1041E000022810D2A120385C0007800E28184068F1
:1041F000BC21785007E0FFF74BFB01E0FFF76EFBB7
:10420000002800D00024204601B0F0BDD8060020D0
:1042100010B5044600F0F6F8242060430849081859
:10422000C82106224254C421064A7A444250D4216D
:10423000054A7A444250C1210122425410BDC04671
:10424000D80600205E1300007FF9FFFFF0B581B0B3
:104250000646FFF7E3FC0546114F3C46A0342022FA
:104260002046314600F031FB70780F2806DC01282B
:104270000AD0022811D1FFF731FB07E0102809D03E
:1042800011280AD1686806E0FFF702FB002804D075
:10429000002402E02868BC217850204601B0F0BD1F
:1042A000D806002010B5044600F0ACF82420604386
:1042B0000B490818C82105224254C421094A7A44EE
:1042C0004250D421084A7A444250D021074A7A44C5
:1042D0004250C12101224254204600F06DF810BD29
:1042E000D80600208A130000EBF8FFFF7BFFFFFFDA
:1042F00080B5FFF75BFF002807D0A12203498A5C45
:10430000102A02D3B8220A238B5280BDD80600207F
:1043100010B50446FFF77CFF2420604304490818C9
:10432000D021044A7A444250204600F045F810BD9E
:10433000D8060020C9FFFFFFF0B581B00646FFF7A1
:104340006DFC0546114F3C46A034202220463146E4
:1043500000F0BBFA7078022804D0012808D1FFF7DA
:1043600097FA01E0FFF7BAFA00280BD0002409E021
:10437000A120385C0106090F04D00007800E2858E0
:10438000BC217850204601B0F0BDC046D8060020C0
:1043900010B5084C207800280AD12046C0302421CE
:1043A00000F08AFA00206061A061E06101202070C5
:1043B000401E10BDD8060020B0B504461048017854
:1043C00000290ED0621C8A420BD12421614345187A
:1043D000FDF7CEFAC22000212952204600F022F833
:1043E000B0BD0022D243A21A531E9A414B1E9941DE
:1043F0000A4204D14178AA2901D169214170B0BD96
:10440000D806002010B50446FDF7B2FA002C00D003
:1044100010BD0348C030242100F04EFA10BDC04644
:10442000D8060020F0B581B004460420FEF7A2FAB9
:10443000002839D0972837D0242060431B490C1816
:10444000C420205800282FD02546C4352646C23621
:104450002746D037C8343088217880B2884223D2AA
:10446000FEF754FA00281FD1FEF7D8F9AA2803D185
:10447000FEF7FEF9AA2817D12868318849014018AB
:104480003968002902D08847002807D0012803D1C5
:104490002868318849014018FCF777FD3088401CB6
:1044A000308029680029D7D101B0F0BDD80600209E
:1044B00080B5002802D0FEF705F802E00248FDF7BB
:1044C0007FF8FDF715F980BD8569000010B500285B
:1044D00009D00B4C02202070FBF7C4FF002807D442
:1044E000FEF716F809E0064800210170054802E0D1
:1044F000002020700448FDF763F8FDF7F9F810BDBF
:10450000C80300208569000008B00000130A435466
:104510004018427070470000002243088B4274D359
:1045200003098B425FD3030A8B4244D3030B8B42B4
:1045300028D3030C8B420DD3FF22090212BA030CBD
:104540008B4202D31212090265D0030B8B4219D39E
:1045500000E0090AC30B8B4201D3CB03C01A5241BE
:10456000830B8B4201D38B03C01A5241430B8B4206
:1045700001D34B03C01A5241030B8B4201D30B03EF
:10458000C01A5241C30A8B4201D3CB02C01A524116
:10459000830A8B4201D38B02C01A5241430A8B42D9
:1045A00001D34B02C01A5241030A8B4201D30B02C2
:1045B000C01A5241CDD2C3098B4201D3CB01C01ADC
:1045C000524183098B4201D38B01C01A52414309E6
:1045D0008B4201D34B01C01A524103098B4201D3D4
:1045E0000B01C01A5241C3088B4201D3CB00C01A41
:1045F000524183088B4201D38B00C01A52414308B9
:104600008B4201D34B00C01A5241411A00D20146DD
:10461000524110467047FFE701B5002000F006F850
:1046200002BDC0460029F7D076E770477047C04604
:10463000002B11D1002A0FD1002900D1002802D06F
:104640000021C943080007B4024802A140180290A3
:1046500003BDC046D9FFFFFF03B4684601B5029809
:1046600000F034F8019B9E4602B00CBC7047C04677
:10467000F0B5CE46474680B5070099463B0C9C46B0
:1046800013041B0C1D000E0061460004140C000CEA
:1046900045434B4360436143C0182C0C20188C46A3
:1046A000834203D980235B029846C4444946794338
:1046B0007243030C63442D042D0CC91800044019E7
:1046C0008918C0BCB946B046F0BDC046F0B55746E3
:1046D0004E464546DE46E0B504000D00924699463A
:1046E00083B08B4230D82DD04946504600F0BAF8FE
:1046F00029000600200000F0B5F8331A9846203B48
:104700009B4633D45A465346934042461F00534675
:1047100093401E00AF423AD8AF4200D178E05B46EA
:10472000A41BBD41002B00DA75E00022002300929B
:10473000019301235A46934001930123424693403B
:10474000009328E08242CFD90022002300920193F7
:104750000C9B002B01D01C605D600098019903B098
:10476000F0BCBB46B246A946A046F0BD4246202357
:104770009B1A5246DA40414613004A468A401700C7
:1047800042461F43534693401E00AF42C4D9002205
:104790000023009201934346002BD9D0FB077208F7
:1047A0001A4346467B080EE0AB4201D1A2420CD828
:1047B000A41A9D41012024196D410021013E2418B5
:1047C0004D41002E06D0AB42EED9013E24196D4179
:1047D000002EF8D1009801995B4600196941002B21
:1047E00024DB2B005A464446D3402A00E2401C00FA
:1047F0005B461500002B2ADB26009E403300260076
:104800004746BE403200801A9941009001919FE7CF
:10481000A342BCD883E74246202300219B1A0022F2
:10482000009101920122DA40019286E7424620235C
:104830009B1A2A0046469A402300F34044461343FD
:104840002A00E2401C005B461500002BD4DA4246E9
:104850002F002023260097409B1ADE403B00334365
:10486000CDE7C04610B5002903D100F007F820308D
:1048700002E0080000F002F810BDC0461C21012330
:104880001B04984201D3000C10391B0A984201D333
:10489000000A08391B09984201D30009043902A211
:1048A000105C40187047C046040302020101010178
:1048B000000000000000000010B5002200F009F820
:1048C00010BD10B500F010F810BD10B500F015F8CF
:1048D00010BD0B0010B511001A0000F021F810BD3A
:1048E00010B500F05AF810BD002310B59A4200D15F
:1048F00010BDCC5CC4540133F8E710B5884202D92E
:104900008B18984203D3002307E08B5C8354013A51
:10491000FBD210BDCC5CC45401339A42FAD1F8E703
:1049200003008218934200D1704719700133F9E7F0
:10493000F0C041464A4653465C466D4676467EC0C8
:104940002838F0C80020704710307CC8904699463F
:10495000A246AB46B54608C82838F0C8080000D1C2
:10496000012018470023C25C0133002AFBD1581EE6
:104970007047030030B51D00002A06D00C78013ABC
:1049800001332C700131002CF5D100219A1893428B
:1049900000D130BD19700133F9E710B50A000021CC
:1049A000FFF7BEFF10BD27002F0001A4082D9D5664
:1049B0000749ECD0FFA1DCAAAEE2C2CB25D88154D6
:1049C000657374005369676E204D65737361676525
:1049D0000053656E64204D504300436F6E747261E6
:1049E00063740028756E6B6F776E2900436F6E6677
:1049F00069726D20416464726573730050617468FC
:104A0000005261772042797465730050726576694F
:104A10006577206E6F7420617661696C61626C6588
:104A20002E20496620796F75207472757374207416
:104A3000686973207061796C6F616420796F75208B
:104A400063616E207374696C6C2073656E642E00F4
:104A5000417070726F76650052656A6563740030EC
:104A600030252E2A480052657669657700547261B8
:104A70006E73616374696F6E00496E746572616311
:104A800074696F6E004E756D6265722054616700C7
:104A90005061796C6F616400506179696E6720467E
:104AA000656500416D6F756E740073697A652025C8
:104AB0002E2A73004B4220252E2A73004D5043208E
:104AC000252E2A73000000006C4ED0C0EC49D0C0E7
:104AD000A542D0C0C84AD0C00000000000000000BD
:104AE000FC49D0C000020020BD3DD0C0E04AD0C08B
:104AF0000000000000000000F449D0C03C0200208B
:104B0000BD3DD0C0F84AD0C0000000000000000049
:104B1000DA49D0C03C020020BD3DD0C0104BD0C00F
:104B20000000000000000000014AD0C06802002020
:104B3000BD3DD0C0284BD0C00000000000000000E8
:104B4000000000000B4AD0C0BD3DD0C0404BD0C0DB
:104B500000000000000000006108D0C0000000005C
:104B60000000000000000000584BD0C0FFFFFFFF16
:104B7000E44ED0C0504AD0C06141D0C0704BD0C0CC
:104B8000684BD0C0000000007108D0C000000000D9
:104B90000000000000000000884BD0C0FFFFFFFFB6
:104BA000FC4DD0C0584AD0C06141D0C0A04BD0C04D
:104BB000984BD0C000000000D04AD0C0E84AD0C016
:104BC000004BD0C0784BD0C0A84BD0C0FFFFFFFF38
:104BD0006C4ED0C0664AD0C06D4AD0C01143D0C020
:104BE000D04BD0C00000000000000000794AD0C0C7
:104BF0006C030020BD3DD0C0EC4BD0C000000000D5
:104C000000000000C949D0C068020020BD3DD0C0EE
:104C1000044CD0C00000000000000000854AD0C055
:104C200068020020BD3DD0C01C4CD0C00000000078
:104C300000000000904AD0C068020020BD3DD0C0F6
:104C4000344CD0C00000000000000000984AD0C0E2
:104C50007C030020BD3DD0C04C4CD0C00000000003
:104C600000000000A34AD0C09C030020BD3DD0C07E
:104C7000644CD0C00000000000000000DC4BD0C03D
:104C8000F44BD0C00C4CD0C0784BD0C0A84BD0C097
:104C9000FFFFFFFFDC4BD0C0F44BD0C0004BD0C0B7
:104CA0006C4CD0C0544CD0C0784BD0C0A84BD0C0B6
:104CB000FFFFFFFFDC4BD0C0F44BD0C0004BD0C097
:104CC0006C4CD0C00C4CD0C0544CD0C0784BD0C031
:104CD000A84BD0C0FFFFFFFFDC4BD0C0F44BD0C0CF
:104CE000004BD0C06C4CD0C0244CD0C0544CD0C071
:104CF000784BD0C0A84BD0C0FFFFFFFFDC4BD0C02B
:104D0000F44BD0C0184BD0C03C4CD0C0544CD0C099
:104D1000784BD0C0A84BD0C0FFFFFFFFDC4BD0C00A
:104D2000F44BD0C06C4CD0C00C4CD0C0784BD0C031
:104D3000A84BD0C0FFFFFFFFDC4BD0C0484BD0C01A
:104D4000304BD0C0784BD0C0A84BD0C0FFFFFFFF86
:104D50005465737400000000000000000000506102
:104D6000727469736961000000000000FFFFFF00BA
:104D7000E001FEC1FD387F06DF81FFC47FF3FFBC89
:104D80001FE7E7F13FF80778000000000E00000081
:104D90000E00000001000000684DD0C0704DD0C072
:104DA00000000000FFFFFF000000FEC1FF3030ECFC
:104DB0000D03C3DE3030EC0D03C3C0F03FF8070035
:104DC000000000000E0000000E00000001000000C6
:104DD000A04DD0C0A84DD0C000000000FFFFFF00D4
:104DE000008001E6C071383807FC001E8007F00320
:104DF000CEC1E13870061800000000000E0000006F
:104E00000E00000001000000D84DD0C0E04DD0C021
:104E100000000000FFFFFF00000000000C8007F012
:104E200003FEC1FFF03FF003CC0033C00C000000D4
:104E3000000000000E0000000E0000000100000055
:104E4000104ED0C0184ED0C000000000FFFFFF0081
:104E5000000000001EE01F1C0E03638C19630C0C85
:104E600087837F8007000000000000000E00000024
:104E70000E00000001000000484ED0C0504ED0C0CF
:104E800000000000FFFFFF0048124208040000007D
:104E90000700000001000000804ED0C0884ED0C046
:104EA00000000000FFFFFF00218424010400000037
:104EB0000700000001000000A04ED0C0A84ED0C0E6
:104EC00000000000FFFFFF00000000000000C00025
:104ED000380067E0381C9C037E000F800100000052
:104EE000000000000E0000000E00000001000000A5
:104EF000C04ED0C0C84ED0C000000000FFFFFF0071
:104F00000000000F80104020402240227C224412EA
:104F1000440E4402440204020402FC0300000000A8
:104F2000100000001000000001000000F84ED0C08A
:104F3000004FD0C069732072656164790056657254
:104F400073696F6E00312E302E310041626F7574BF
:104F50000051756974005061727469736961204110
:104F600070700028632920323032322050424320B2
:104F700041707073004261636B000000204FD0C02D
:104F80005E4DD0C0344FD0C01143D0C07C4FD0C094
:104F900000000000000000003D4FD0C0454FD0C0D1
:104FA000913CD0C0984FD0C000000000000000002D
:104FB000D116D0C00000000000000000000000007A
:104FC000B04FD0C0FFFFFFFFC44DD0C04B4FD0C08B
:104FD0006141D0C0C84FD0C0C04FD0C00000000059
:104FE000E516D0C000000000000000000000000036
:104FF000E04FD0C0FFFFFFFF344ED0C0514FD0C0B4
:105000006141D0C0F84FD0C0F04FD0C000000000C8
:10501000884FD0C0A04FD0C0D04FD0C00050D0C01B
:10502000FDFFFFFFFFFFFFFF564FD0C0634FD0C013
:10503000913CD0C02850D0C000000000000000000B
:105040001517D0C0000000000000000000000000A4
:105050004050D0C0FFFFFFFF8C4DD0C0754FD0C077
:105060006141D0C05850D0C05050D0C000000000A6
:105070003050D0C06050D0C0FDFFFFFFFFFFFFFFEA
:105080006000020000303132333435363738396150
:1050900062636465663031323334353637383941CE
:1050A00042434445460000001350617274697369BD
:1050B0006120426C6F636B636861696E0000001B66
:1050C000506172746973696120426C6F636B6368CD
:1050D00061696E20546573746E6574000921110155
:1050E000000122220006A0FF0901A1010903150009
:1050F00026FF007508954081080904150026FF0069
:10510000750895409108C0050F3900021810050078
:1051100038B60834A909A0478BFDA0768815B66576
:1051200000011E001C100500DF60DDD88945C74C5A
:105130009CD2659D9E648A9F00000306B2007700A2
:10514000DD35D0C0ED35D0C0FD35D0C00D36D0C076
:105150001D36D0C02D36D0C03D36D0C04D36D0C063
:1051600012034D005300460054003100300030005F
:105170007700920000000001050001008800000097
:10518000070000002A004400650076006900630003
:10519000650049006E0074006500720066006100E1
:1051A000630065004700550049004400730000009B
:1051B000500000007B0031003300640036003300F3
:1051C0003400300030002D00320043003900370039
:1051D0002D0030003000300034002D003000300051
:1051E000300030002D0034006300360035003600FA
:1051F00034003600370036003500370032007D00BD
:10520000000000000A00000000000306B2000800D1
:1052100001000000A800080002000100A000140026
:10522000030057494E5553420000000000000000A3
:1052300000008400040007002A0044006500760096
:1052400069006300650049006E007400650072002B
:105250006600610063006500470055004900440096
:105260007300000050007B00430045003800300010
:1052700039003200360034002D0034004200320084
:1052800034002D0034004500380031002D0041006D
:105290003800420032002D00350037004500440040
:1052A0003000310044003500380030004500310046
:1052B0007D000000000000005934D0C08B34D0C005
:1052C000C533D0C00000000000000000E134D0C0B1
:1052D000F934D0C000000000000000000000000011
:1052E0005537D0C05537D0C05537D0C06537D0C03E
:1052F0004535D0C07135D0C07535D0C00000000034
:10530000000000007935D0C09135D0C00000000009
:1053100000000000000000005537D0C05537D0C055
:105320005537D0C06537D0C01201100200000040D0
:10533000972C1110010201020301040309040E035A
:105340004C00650064006700650072000E034E00AB
:1053500061006E006F00200053000A03300030002F
:1053600030003100280000000001040001000000AE
:1053700000000000010157494E5553420000000053
:1053800000000000000000000000000009024000D2
:10539000020102C0320904000002030000020921D8
:1053A00011010001222200070582034000010705C8
:1053B00002034000010904010002FFFFFF0207058C
:1053C0008303400001070503034000010A060002B1
:1053D0000000004001000000030000000000800009
:1053E000200000000100000000000000FFFFFF009F
:1053F0000000000000000000050102000C00040095
:105400000700000000000000FFFFFF000000000098
:10541000000000008C4ED0C005027A000C00040091
:105420000700000000000000FFFFFF000000000078
:1054300000000000AC4ED0C0071006000C00740045
:105440002000000000000000FFFFFF00000000003F
:105450000880000000000000071106001A00740018
:105460002000000000000000FFFFFF00000000001F
:1054700008800000000000002573202825642F25E7
:1054800064290025730025642F2564003333467793
:10549000669A8923343466663344334568666767A1
:1054A000886668676868333365666556AA78777773
:1054B000886666888834457866AB89997799786676
:1054C000768876AB68676745454567566767775660
:1054D000776756677734456734AA77777777455685
:1054E0004577679A6767564566456676030000000C
:1054F000000080002000000001000000000000000B
:10550000FFFFFF0000000000000000000501020096
:105510000C0004000700000000000000FFFFFF0077
:1055200000000000000000008C4ED0C005027A0090
:105530000C0004000700000000000000FFFFFF0057
:105540000000000000000000AC4ED0C00510380084
:10555000020010001000000000000000FFFFFF002C
:10556000000000000A800000000000000711000099
:105570001C0080002000000000000000FFFFFF0072
:105580000000000008800000000000000300000090
:10559000000080002000000001000000000000006A
:1055A000FFFFFF00000000000000000005010200F6
:1055B0000C0004000700000000000000FFFFFF00D7
:1055C00000000000000000008C4ED0C005027A00F0
:1055D0000C0004000700000000000000FFFFFF00B7
:1055E0000000000000000000AC4ED0C0050F10000D
:1055F000080010001000000000000000FFFFFF0086
:10560000000000000000000000000000071029005A
:105610000C0080002000000000000000FFFFFF00E1
:105620000000000008000000000000000711290031
:105630001A0080002000000000000000FFFFFF00B3
:10564000000000000800000000000000030000004F
:1056500000008000200000000100000000000000A9
:10566000FFFFFF0000000000000000000501020035
:105670000C0004000700000000000000FFFFFF0016
:1056800000000000000000008C4ED0C005027A002F
:105690000C0004000700000000000000FFFFFF00F6
:1056A0000000000000000000AC4ED0C00510380023
:1056B000020010001000000000000000FFFFFF00CB
:1056C000000000000A800000000000000711000038
:1056D0001C0080002000000000000000FFFFFF0011
:1056E000000000000A800000000000000000000030
:1056F00000000000000000000000000000000000AA
:04000005C0D0000166
:00000001FF
